{
  "contractName": "NFT2",
  "abi": [
    {
      "inputs": [],
      "stateMutability": "nonpayable",
      "type": "constructor"
    },
    {
      "anonymous": false,
      "inputs": [
        {
          "indexed": true,
          "internalType": "address",
          "name": "owner",
          "type": "address"
        },
        {
          "indexed": true,
          "internalType": "address",
          "name": "approved",
          "type": "address"
        },
        {
          "indexed": true,
          "internalType": "uint256",
          "name": "tokenId",
          "type": "uint256"
        }
      ],
      "name": "Approval",
      "type": "event"
    },
    {
      "anonymous": false,
      "inputs": [
        {
          "indexed": true,
          "internalType": "address",
          "name": "owner",
          "type": "address"
        },
        {
          "indexed": true,
          "internalType": "address",
          "name": "operator",
          "type": "address"
        },
        {
          "indexed": false,
          "internalType": "bool",
          "name": "approved",
          "type": "bool"
        }
      ],
      "name": "ApprovalForAll",
      "type": "event"
    },
    {
      "anonymous": false,
      "inputs": [
        {
          "indexed": true,
          "internalType": "address",
          "name": "previousOwner",
          "type": "address"
        },
        {
          "indexed": true,
          "internalType": "address",
          "name": "newOwner",
          "type": "address"
        }
      ],
      "name": "OwnershipTransferred",
      "type": "event"
    },
    {
      "anonymous": false,
      "inputs": [
        {
          "indexed": true,
          "internalType": "address",
          "name": "from",
          "type": "address"
        },
        {
          "indexed": true,
          "internalType": "address",
          "name": "to",
          "type": "address"
        },
        {
          "indexed": true,
          "internalType": "uint256",
          "name": "tokenId",
          "type": "uint256"
        }
      ],
      "name": "Transfer",
      "type": "event"
    },
    {
      "inputs": [
        {
          "internalType": "address",
          "name": "to",
          "type": "address"
        },
        {
          "internalType": "uint256",
          "name": "tokenId",
          "type": "uint256"
        }
      ],
      "name": "approve",
      "outputs": [],
      "stateMutability": "nonpayable",
      "type": "function"
    },
    {
      "inputs": [
        {
          "internalType": "address",
          "name": "owner",
          "type": "address"
        }
      ],
      "name": "balanceOf",
      "outputs": [
        {
          "internalType": "uint256",
          "name": "",
          "type": "uint256"
        }
      ],
      "stateMutability": "view",
      "type": "function",
      "constant": true
    },
    {
      "inputs": [
        {
          "internalType": "uint256",
          "name": "tokenId",
          "type": "uint256"
        }
      ],
      "name": "getApproved",
      "outputs": [
        {
          "internalType": "address",
          "name": "",
          "type": "address"
        }
      ],
      "stateMutability": "view",
      "type": "function",
      "constant": true
    },
    {
      "inputs": [
        {
          "internalType": "address",
          "name": "owner",
          "type": "address"
        },
        {
          "internalType": "address",
          "name": "operator",
          "type": "address"
        }
      ],
      "name": "isApprovedForAll",
      "outputs": [
        {
          "internalType": "bool",
          "name": "",
          "type": "bool"
        }
      ],
      "stateMutability": "view",
      "type": "function",
      "constant": true
    },
    {
      "inputs": [],
      "name": "name",
      "outputs": [
        {
          "internalType": "string",
          "name": "",
          "type": "string"
        }
      ],
      "stateMutability": "view",
      "type": "function",
      "constant": true
    },
    {
      "inputs": [],
      "name": "owner",
      "outputs": [
        {
          "internalType": "address",
          "name": "",
          "type": "address"
        }
      ],
      "stateMutability": "view",
      "type": "function",
      "constant": true
    },
    {
      "inputs": [
        {
          "internalType": "uint256",
          "name": "tokenId",
          "type": "uint256"
        }
      ],
      "name": "ownerOf",
      "outputs": [
        {
          "internalType": "address",
          "name": "",
          "type": "address"
        }
      ],
      "stateMutability": "view",
      "type": "function",
      "constant": true
    },
    {
      "inputs": [],
      "name": "renounceOwnership",
      "outputs": [],
      "stateMutability": "nonpayable",
      "type": "function"
    },
    {
      "inputs": [
        {
          "internalType": "address",
          "name": "from",
          "type": "address"
        },
        {
          "internalType": "address",
          "name": "to",
          "type": "address"
        },
        {
          "internalType": "uint256",
          "name": "tokenId",
          "type": "uint256"
        }
      ],
      "name": "safeTransferFrom",
      "outputs": [],
      "stateMutability": "nonpayable",
      "type": "function"
    },
    {
      "inputs": [
        {
          "internalType": "address",
          "name": "from",
          "type": "address"
        },
        {
          "internalType": "address",
          "name": "to",
          "type": "address"
        },
        {
          "internalType": "uint256",
          "name": "tokenId",
          "type": "uint256"
        },
        {
          "internalType": "bytes",
          "name": "data",
          "type": "bytes"
        }
      ],
      "name": "safeTransferFrom",
      "outputs": [],
      "stateMutability": "nonpayable",
      "type": "function"
    },
    {
      "inputs": [
        {
          "internalType": "address",
          "name": "operator",
          "type": "address"
        },
        {
          "internalType": "bool",
          "name": "approved",
          "type": "bool"
        }
      ],
      "name": "setApprovalForAll",
      "outputs": [],
      "stateMutability": "nonpayable",
      "type": "function"
    },
    {
      "inputs": [
        {
          "internalType": "bytes4",
          "name": "interfaceId",
          "type": "bytes4"
        }
      ],
      "name": "supportsInterface",
      "outputs": [
        {
          "internalType": "bool",
          "name": "",
          "type": "bool"
        }
      ],
      "stateMutability": "view",
      "type": "function",
      "constant": true
    },
    {
      "inputs": [],
      "name": "symbol",
      "outputs": [
        {
          "internalType": "string",
          "name": "",
          "type": "string"
        }
      ],
      "stateMutability": "view",
      "type": "function",
      "constant": true
    },
    {
      "inputs": [
        {
          "internalType": "address",
          "name": "from",
          "type": "address"
        },
        {
          "internalType": "address",
          "name": "to",
          "type": "address"
        },
        {
          "internalType": "uint256",
          "name": "tokenId",
          "type": "uint256"
        }
      ],
      "name": "transferFrom",
      "outputs": [],
      "stateMutability": "nonpayable",
      "type": "function"
    },
    {
      "inputs": [
        {
          "internalType": "address",
          "name": "newOwner",
          "type": "address"
        }
      ],
      "name": "transferOwnership",
      "outputs": [],
      "stateMutability": "nonpayable",
      "type": "function"
    },
    {
      "inputs": [],
      "name": "witnetPriceRouter",
      "outputs": [
        {
          "internalType": "contract IWitnetPriceRouter",
          "name": "",
          "type": "address"
        }
      ],
      "stateMutability": "view",
      "type": "function",
      "constant": true
    },
    {
      "inputs": [],
      "name": "safeMint",
      "outputs": [],
      "stateMutability": "nonpayable",
      "type": "function"
    },
    {
      "inputs": [
        {
          "internalType": "uint256",
          "name": "_tokenId",
          "type": "uint256"
        }
      ],
      "name": "getPrice",
      "outputs": [
        {
          "internalType": "int256",
          "name": "_lastPrice",
          "type": "int256"
        }
      ],
      "stateMutability": "view",
      "type": "function",
      "constant": true
    },
    {
      "inputs": [
        {
          "internalType": "uint256",
          "name": "tokenId",
          "type": "uint256"
        }
      ],
      "name": "tokenURI",
      "outputs": [
        {
          "internalType": "string",
          "name": "",
          "type": "string"
        }
      ],
      "stateMutability": "view",
      "type": "function",
      "constant": true
    }
  ],
  "bytecode": "0x60a06040523480156200001157600080fd5b506040518060400160405280600a81526020017f44594e414d49434e4654000000000000000000000000000000000000000000008152506040518060400160405280600481526020017f43454c4f00000000000000000000000000000000000000000000000000000000815250816000908051906020019062000096929190620001ee565b508060019080519060200190620000af929190620001ee565b505050620000d2620000c66200012060201b60201c565b6200012860201b60201c565b736f8a7e2bbc1edb8782145cd1089251f6e2c738ae73ffffffffffffffffffffffffffffffffffffffff1660808173ffffffffffffffffffffffffffffffffffffffff168152505062000303565b600033905090565b6000600760009054906101000a900473ffffffffffffffffffffffffffffffffffffffff16905081600760006101000a81548173ffffffffffffffffffffffffffffffffffffffff021916908373ffffffffffffffffffffffffffffffffffffffff1602179055508173ffffffffffffffffffffffffffffffffffffffff168173ffffffffffffffffffffffffffffffffffffffff167f8be0079c531659141344cd1fd0a4f28419497f9722a3daafe3b4186f6b6457e060405160405180910390a35050565b828054620001fc90620002cd565b90600052602060002090601f0160209004810192826200022057600085556200026c565b82601f106200023b57805160ff19168380011785556200026c565b828001600101855582156200026c579182015b828111156200026b5782518255916020019190600101906200024e565b5b5090506200027b91906200027f565b5090565b5b808211156200029a57600081600090555060010162000280565b5090565b7f4e487b7100000000000000000000000000000000000000000000000000000000600052602260045260246000fd5b60006002820490506001821680620002e657607f821691505b60208210811415620002fd57620002fc6200029e565b5b50919050565b60805161471a62000349600039600081816106fe01528181611be601528181611ca201528181611d5e01528181611e1a01528181611ed60152611f92015261471a6000f3fe608060405234801561001057600080fd5b50600436106101215760003560e01c806370a08231116100ad578063b88d4fde11610071578063b88d4fde146102e2578063c87b56dd146102fe578063e75722301461032e578063e985e9c51461035e578063f2fde38b1461038e57610121565b806370a0823114610250578063715018a6146102805780638da5cb5b1461028a57806395d89b41146102a8578063a22cb465146102c657610121565b806323b872dd116100f457806323b872dd146101c057806342842e0e146101dc5780634fc87f24146101f85780636352211e146102165780636871ee401461024657610121565b806301ffc9a71461012657806306fdde0314610156578063081812fc14610174578063095ea7b3146101a4575b600080fd5b610140600480360381019061013b9190612cc3565b6103aa565b60405161014d9190612d0b565b60405180910390f35b61015e61048c565b60405161016b9190612dbf565b60405180910390f35b61018e60048036038101906101899190612e17565b61051e565b60405161019b9190612e85565b60405180910390f35b6101be60048036038101906101b99190612ecc565b610564565b005b6101da60048036038101906101d59190612f0c565b61067c565b005b6101f660048036038101906101f19190612f0c565b6106dc565b005b6102006106fc565b60405161020d9190612fbe565b60405180910390f35b610230600480360381019061022b9190612e17565b610720565b60405161023d9190612e85565b60405180910390f35b61024e6107a7565b005b61026a60048036038101906102659190612fd9565b610a08565b6040516102779190613015565b60405180910390f35b610288610ac0565b005b610292610ad4565b60405161029f9190612e85565b60405180910390f35b6102b0610afe565b6040516102bd9190612dbf565b60405180910390f35b6102e060048036038101906102db919061305c565b610b90565b005b6102fc60048036038101906102f791906131d1565b610ba6565b005b61031860048036038101906103139190612e17565b610c08565b6040516103259190612dbf565b60405180910390f35b61034860048036038101906103439190612e17565b610c3e565b604051610355919061326d565b60405180910390f35b61037860048036038101906103739190613288565b610e9f565b6040516103859190612d0b565b60405180910390f35b6103a860048036038101906103a39190612fd9565b610f33565b005b60007f80ac58cd000000000000000000000000000000000000000000000000000000007bffffffffffffffffffffffffffffffffffffffffffffffffffffffff1916827bffffffffffffffffffffffffffffffffffffffffffffffffffffffff1916148061047557507f5b5e139f000000000000000000000000000000000000000000000000000000007bffffffffffffffffffffffffffffffffffffffffffffffffffffffff1916827bffffffffffffffffffffffffffffffffffffffffffffffffffffffff1916145b80610485575061048482610fb7565b5b9050919050565b60606000805461049b906132f7565b80601f01602080910402602001604051908101604052809291908181526020018280546104c7906132f7565b80156105145780601f106104e957610100808354040283529160200191610514565b820191906000526020600020905b8154815290600101906020018083116104f757829003601f168201915b5050505050905090565b600061052982611021565b6004600083815260200190815260200160002060009054906101000a900473ffffffffffffffffffffffffffffffffffffffff169050919050565b600061056f82610720565b90508073ffffffffffffffffffffffffffffffffffffffff168373ffffffffffffffffffffffffffffffffffffffff1614156105e0576040517f08c379a00000000000000000000000000000000000000000000000000000000081526004016105d79061339b565b60405180910390fd5b8073ffffffffffffffffffffffffffffffffffffffff166105ff61106c565b73ffffffffffffffffffffffffffffffffffffffff16148061062e575061062d8161062861106c565b610e9f565b5b61066d576040517f08c379a00000000000000000000000000000000000000000000000000000000081526004016106649061342d565b60405180910390fd5b6106778383611074565b505050565b61068d61068761106c565b8261112d565b6106cc576040517f08c379a00000000000000000000000000000000000000000000000000000000081526004016106c3906134bf565b60405180910390fd5b6106d78383836111c2565b505050565b6106f783838360405180602001604052806000815250610ba6565b505050565b7f000000000000000000000000000000000000000000000000000000000000000081565b60008061072c836114bc565b9050600073ffffffffffffffffffffffffffffffffffffffff168173ffffffffffffffffffffffffffffffffffffffff16141561079e576040517f08c379a00000000000000000000000000000000000000000000000000000000081526004016107959061352b565b60405180910390fd5b80915050919050565b60006107b360086114f9565b905060006006426040516020016107ca919061356c565b6040516020818303038152906040528051906020012060001c6107ed91906135b6565b9050606060008260ff16141561083a576040518060400160405280600781526020017f43454c4f5553440000000000000000000000000000000000000000000000000081525090506109e5565b60018260ff161415610883576040518060400160405280600681526020017f425443555344000000000000000000000000000000000000000000000000000081525090506109e4565b60028260ff1614156108cc576040518060400160405280600781526020017f43454c4f4555520000000000000000000000000000000000000000000000000081525090506109e3565b60038260ff161415610915576040518060400160405280600681526020017f455448555344000000000000000000000000000000000000000000000000000081525090506109e2565b60048260ff16141561095e576040518060400160405280600781526020017f4e435443454c4f0000000000000000000000000000000000000000000000000081525090506109e1565b60058260ff1614156109a7576040518060400160405280600681526020017f4e4354555344000000000000000000000000000000000000000000000000000081525090506109e0565b6040518060400160405280600781526020017f43454c4f5553440000000000000000000000000000000000000000000000000081525090505b5b5b5b5b5b6109ef6008611507565b6109f9338461151d565b610a03838261153b565b505050565b60008073ffffffffffffffffffffffffffffffffffffffff168273ffffffffffffffffffffffffffffffffffffffff161415610a79576040517f08c379a0000000000000000000000000000000000000000000000000000000008152600401610a7090613659565b60405180910390fd5b600360008373ffffffffffffffffffffffffffffffffffffffff1673ffffffffffffffffffffffffffffffffffffffff168152602001908152602001600020549050919050565b610ac86115af565b610ad2600061162d565b565b6000600760009054906101000a900473ffffffffffffffffffffffffffffffffffffffff16905090565b606060018054610b0d906132f7565b80601f0160208091040260200160405190810160405280929190818152602001828054610b39906132f7565b8015610b865780601f10610b5b57610100808354040283529160200191610b86565b820191906000526020600020905b815481529060010190602001808311610b6957829003601f168201915b5050505050905090565b610ba2610b9b61106c565b83836116f3565b5050565b610bb7610bb161106c565b8361112d565b610bf6576040517f08c379a0000000000000000000000000000000000000000000000000000000008152600401610bed906134bf565b60405180910390fd5b610c0284848484611860565b50505050565b60606000610c1583610c3e565b905060008190506000610c27856118bc565b9050610c348582846119cf565b9350505050919050565b600080610c4a836118bc565b9050604051602001610c5b906136d0565b6040516020818303038152906040528051906020012081604051602001610c829190613716565b604051602081830303815290604052805190602001201415610cae57610ca6611be2565b915050610e9a565b604051602001610cbd90613779565b6040516020818303038152906040528051906020012081604051602001610ce49190613716565b604051602081830303815290604052805190602001201415610d1057610d08611c9e565b915050610e9a565b604051602001610d1f906137da565b6040516020818303038152906040528051906020012081604051602001610d469190613716565b604051602081830303815290604052805190602001201415610d7257610d6a611d5a565b915050610e9a565b604051602001610d819061383b565b6040516020818303038152906040528051906020012081604051602001610da89190613716565b604051602081830303815290604052805190602001201415610dd457610dcc611e16565b915050610e9a565b604051602001610de39061389c565b6040516020818303038152906040528051906020012081604051602001610e0a9190613716565b604051602081830303815290604052805190602001201415610e3657610e2e611ed2565b915050610e9a565b604051602001610e45906138fd565b6040516020818303038152906040528051906020012081604051602001610e6c9190613716565b604051602081830303815290604052805190602001201415610e9857610e90611f8e565b915050610e9a565b505b919050565b6000600560008473ffffffffffffffffffffffffffffffffffffffff1673ffffffffffffffffffffffffffffffffffffffff16815260200190815260200160002060008373ffffffffffffffffffffffffffffffffffffffff1673ffffffffffffffffffffffffffffffffffffffff16815260200190815260200160002060009054906101000a900460ff16905092915050565b610f3b6115af565b600073ffffffffffffffffffffffffffffffffffffffff168173ffffffffffffffffffffffffffffffffffffffff161415610fab576040517f08c379a0000000000000000000000000000000000000000000000000000000008152600401610fa290613984565b60405180910390fd5b610fb48161162d565b50565b60007f01ffc9a7000000000000000000000000000000000000000000000000000000007bffffffffffffffffffffffffffffffffffffffffffffffffffffffff1916827bffffffffffffffffffffffffffffffffffffffffffffffffffffffff1916149050919050565b61102a8161204a565b611069576040517f08c379a00000000000000000000000000000000000000000000000000000000081526004016110609061352b565b60405180910390fd5b50565b600033905090565b816004600083815260200190815260200160002060006101000a81548173ffffffffffffffffffffffffffffffffffffffff021916908373ffffffffffffffffffffffffffffffffffffffff160217905550808273ffffffffffffffffffffffffffffffffffffffff166110e783610720565b73ffffffffffffffffffffffffffffffffffffffff167f8c5be1e5ebec7d5bd14f71427d1e84f3dd0314c0f7b2291e5b200ac8c7c3b92560405160405180910390a45050565b60008061113983610720565b90508073ffffffffffffffffffffffffffffffffffffffff168473ffffffffffffffffffffffffffffffffffffffff16148061117b575061117a8185610e9f565b5b806111b957508373ffffffffffffffffffffffffffffffffffffffff166111a18461051e565b73ffffffffffffffffffffffffffffffffffffffff16145b91505092915050565b8273ffffffffffffffffffffffffffffffffffffffff166111e282610720565b73ffffffffffffffffffffffffffffffffffffffff1614611238576040517f08c379a000000000000000000000000000000000000000000000000000000000815260040161122f90613a16565b60405180910390fd5b600073ffffffffffffffffffffffffffffffffffffffff168273ffffffffffffffffffffffffffffffffffffffff1614156112a8576040517f08c379a000000000000000000000000000000000000000000000000000000000815260040161129f90613aa8565b60405180910390fd5b6112b5838383600161208b565b8273ffffffffffffffffffffffffffffffffffffffff166112d582610720565b73ffffffffffffffffffffffffffffffffffffffff161461132b576040517f08c379a000000000000000000000000000000000000000000000000000000000815260040161132290613a16565b60405180910390fd5b6004600082815260200190815260200160002060006101000a81549073ffffffffffffffffffffffffffffffffffffffff02191690556001600360008573ffffffffffffffffffffffffffffffffffffffff1673ffffffffffffffffffffffffffffffffffffffff168152602001908152602001600020600082825403925050819055506001600360008473ffffffffffffffffffffffffffffffffffffffff1673ffffffffffffffffffffffffffffffffffffffff16815260200190815260200160002060008282540192505081905550816002600083815260200190815260200160002060006101000a81548173ffffffffffffffffffffffffffffffffffffffff021916908373ffffffffffffffffffffffffffffffffffffffff160217905550808273ffffffffffffffffffffffffffffffffffffffff168473ffffffffffffffffffffffffffffffffffffffff167fddf252ad1be2c89b69c2b068fc378daa952ba7f163c4a11628f55a4df523b3ef60405160405180910390a46114b783838360016121b1565b505050565b60006002600083815260200190815260200160002060009054906101000a900473ffffffffffffffffffffffffffffffffffffffff169050919050565b600081600001549050919050565b6001816000016000828254019250508190555050565b6115378282604051806020016040528060008152506121b7565b5050565b6115448261204a565b611583576040517f08c379a000000000000000000000000000000000000000000000000000000000815260040161157a90613b3a565b60405180910390fd5b806006600084815260200190815260200160002090805190602001906115aa929190612b8d565b505050565b6115b761106c565b73ffffffffffffffffffffffffffffffffffffffff166115d5610ad4565b73ffffffffffffffffffffffffffffffffffffffff161461162b576040517f08c379a000000000000000000000000000000000000000000000000000000000815260040161162290613ba6565b60405180910390fd5b565b6000600760009054906101000a900473ffffffffffffffffffffffffffffffffffffffff16905081600760006101000a81548173ffffffffffffffffffffffffffffffffffffffff021916908373ffffffffffffffffffffffffffffffffffffffff1602179055508173ffffffffffffffffffffffffffffffffffffffff168173ffffffffffffffffffffffffffffffffffffffff167f8be0079c531659141344cd1fd0a4f28419497f9722a3daafe3b4186f6b6457e060405160405180910390a35050565b8173ffffffffffffffffffffffffffffffffffffffff168373ffffffffffffffffffffffffffffffffffffffff161415611762576040517f08c379a000000000000000000000000000000000000000000000000000000000815260040161175990613c12565b60405180910390fd5b80600560008573ffffffffffffffffffffffffffffffffffffffff1673ffffffffffffffffffffffffffffffffffffffff16815260200190815260200160002060008473ffffffffffffffffffffffffffffffffffffffff1673ffffffffffffffffffffffffffffffffffffffff16815260200190815260200160002060006101000a81548160ff0219169083151502179055508173ffffffffffffffffffffffffffffffffffffffff168373ffffffffffffffffffffffffffffffffffffffff167f17307eab39ab6107e8899845ad3d59bd9653f200f220920489ca2b5937696c31836040516118539190612d0b565b60405180910390a3505050565b61186b8484846111c2565b61187784848484612212565b6118b6576040517f08c379a00000000000000000000000000000000000000000000000000000000081526004016118ad90613ca4565b60405180910390fd5b50505050565b60606118c782611021565b60006006600084815260200190815260200160002080546118e7906132f7565b80601f0160208091040260200160405190810160405280929190818152602001828054611913906132f7565b80156119605780601f1061193557610100808354040283529160200191611960565b820191906000526020600020905b81548152906001019060200180831161194357829003601f168201915b5050505050905060006119716123a9565b90506000815114156119875781925050506119ca565b6000825111156119bc5780826040516020016119a4929190613cc4565b604051602081830303815290604052925050506119ca565b6119c5846123c0565b925050505b919050565b60606000620f4240836119e29190613d17565b90506119ec612c13565b60405180610120016040528060fd815260200161458060fd913981600060058110611a1a57611a19613e2e565b5b60200201819052508481600160058110611a3757611a36613e2e565b5b60200201819052506040518060600160405280602881526020016146bd6028913981600260058110611a6c57611a6b613e2e565b5b6020020181905250611a7d82612428565b81600360058110611a9157611a90613e2e565b5b602002018190525060405180606001604052806035815260200161454b6035913981600460058110611ac657611ac5613e2e565b5b6020020181905250600081600060058110611ae457611ae3613e2e565b5b602002015182600160058110611afd57611afc613e2e565b5b602002015183600260058110611b1657611b15613e2e565b5b602002015184600360058110611b2f57611b2e613e2e565b5b602002015185600460058110611b4857611b47613e2e565b5b6020020151604051602001611b61959493929190613e5d565b60405160208183030381529060405290506000611bb087611b818a612428565b611b8a85612589565b604051602001611b9c93929190614096565b604051602081830303815290604052612589565b905080604051602001611bc3919061413f565b6040516020818303038152906040529150819450505050509392505050565b60007f000000000000000000000000000000000000000000000000000000000000000073ffffffffffffffffffffffffffffffffffffffff1663f78eea83639ed884be60e01b6040518263ffffffff1660e01b8152600401611c449190614182565b60606040518083038186803b158015611c5c57600080fd5b505afa158015611c70573d6000803e3d6000fd5b505050506040513d601f19601f82011682018060405250810190611c9491906141de565b9050508091505090565b60007f000000000000000000000000000000000000000000000000000000000000000073ffffffffffffffffffffffffffffffffffffffff1663f78eea836324beead460e01b6040518263ffffffff1660e01b8152600401611d009190614182565b60606040518083038186803b158015611d1857600080fd5b505afa158015611d2c573d6000803e3d6000fd5b505050506040513d601f19601f82011682018060405250810190611d5091906141de565b9050508091505090565b60007f000000000000000000000000000000000000000000000000000000000000000073ffffffffffffffffffffffffffffffffffffffff1663f78eea836321a7982160e01b6040518263ffffffff1660e01b8152600401611dbc9190614182565b60606040518083038186803b158015611dd457600080fd5b505afa158015611de8573d6000803e3d6000fd5b505050506040513d601f19601f82011682018060405250810190611e0c91906141de565b9050508091505090565b60007f000000000000000000000000000000000000000000000000000000000000000073ffffffffffffffffffffffffffffffffffffffff1663f78eea83633d15f70160e01b6040518263ffffffff1660e01b8152600401611e789190614182565b60606040518083038186803b158015611e9057600080fd5b505afa158015611ea4573d6000803e3d6000fd5b505050506040513d601f19601f82011682018060405250810190611ec891906141de565b9050508091505090565b60007f000000000000000000000000000000000000000000000000000000000000000073ffffffffffffffffffffffffffffffffffffffff1663f78eea83634d50c3a660e01b6040518263ffffffff1660e01b8152600401611f349190614182565b60606040518083038186803b158015611f4c57600080fd5b505afa158015611f60573d6000803e3d6000fd5b505050506040513d601f19601f82011682018060405250810190611f8491906141de565b9050508091505090565b60007f000000000000000000000000000000000000000000000000000000000000000073ffffffffffffffffffffffffffffffffffffffff1663f78eea836331077f1560e01b6040518263ffffffff1660e01b8152600401611ff09190614182565b60606040518083038186803b15801561200857600080fd5b505afa15801561201c573d6000803e3d6000fd5b505050506040513d601f19601f8201168201806040525081019061204091906141de565b9050508091505090565b60008073ffffffffffffffffffffffffffffffffffffffff1661206c836114bc565b73ffffffffffffffffffffffffffffffffffffffff1614159050919050565b60018111156121ab57600073ffffffffffffffffffffffffffffffffffffffff168473ffffffffffffffffffffffffffffffffffffffff161461211f5780600360008673ffffffffffffffffffffffffffffffffffffffff1673ffffffffffffffffffffffffffffffffffffffff16815260200190815260200160002060008282546121179190614231565b925050819055505b600073ffffffffffffffffffffffffffffffffffffffff168373ffffffffffffffffffffffffffffffffffffffff16146121aa5780600360008573ffffffffffffffffffffffffffffffffffffffff1673ffffffffffffffffffffffffffffffffffffffff16815260200190815260200160002060008282546121a29190614265565b925050819055505b5b50505050565b50505050565b6121c18383612721565b6121ce6000848484612212565b61220d576040517f08c379a000000000000000000000000000000000000000000000000000000000815260040161220490613ca4565b60405180910390fd5b505050565b60006122338473ffffffffffffffffffffffffffffffffffffffff1661293f565b1561239c578373ffffffffffffffffffffffffffffffffffffffff1663150b7a0261225c61106c565b8786866040518563ffffffff1660e01b815260040161227e9493929190614310565b602060405180830381600087803b15801561229857600080fd5b505af19250505080156122c957506040513d601f19601f820116820180604052508101906122c69190614371565b60015b61234c573d80600081146122f9576040519150601f19603f3d011682016040523d82523d6000602084013e6122fe565b606091505b50600081511415612344576040517f08c379a000000000000000000000000000000000000000000000000000000000815260040161233b90613ca4565b60405180910390fd5b805181602001fd5b63150b7a0260e01b7bffffffffffffffffffffffffffffffffffffffffffffffffffffffff1916817bffffffffffffffffffffffffffffffffffffffffffffffffffffffff1916149150506123a1565b600190505b949350505050565b606060405180602001604052806000815250905090565b60606123cb82611021565b60006123d56123a9565b905060008151116123f55760405180602001604052806000815250612420565b806123ff84612962565b604051602001612410929190613cc4565b6040516020818303038152906040525b915050919050565b60606000821415612470576040518060400160405280600181526020017f30000000000000000000000000000000000000000000000000000000000000008152509050612584565b600082905060005b600082146124a257808061248b9061439e565b915050600a8261249b91906143e7565b9150612478565b60008167ffffffffffffffff8111156124be576124bd6130a6565b5b6040519080825280601f01601f1916602001820160405280156124f05781602001600182028036833780820191505090505b5090505b6000851461257d576001826125099190614231565b9150600a8561251891906135b6565b60306125249190614265565b60f81b81838151811061253a57612539613e2e565b5b60200101907effffffffffffffffffffffffffffffffffffffffffffffffffffffffffffff1916908160001a905350600a8561257691906143e7565b94506124f4565b8093505050505b919050565b606060008251905060008114156125b2576040518060200160405280600081525091505061271c565b600060036002836125c39190614265565b6125cd91906143e7565b60046125d99190614418565b905060006020826125ea9190614265565b67ffffffffffffffff811115612603576126026130a6565b5b6040519080825280601f01601f1916602001820160405280156126355781602001600182028036833780820191505090505b509050600060405180606001604052806040815260200161467d604091399050600181016020830160005b868110156126d95760038101905062ffffff818a015116603f8160121c168401518060081b905060ff603f83600c1c1686015116810190508060081b905060ff603f8360061c1686015116810190508060081b905060ff603f831686015116810190508060e01b90508084526004840193505050612660565b5060038606600181146126f357600281146127035761270e565b613d3d60f01b600283035261270e565b603d60f81b60018303525b508484525050819450505050505b919050565b600073ffffffffffffffffffffffffffffffffffffffff168273ffffffffffffffffffffffffffffffffffffffff161415612791576040517f08c379a0000000000000000000000000000000000000000000000000000000008152600401612788906144be565b60405180910390fd5b61279a8161204a565b156127da576040517f08c379a00000000000000000000000000000000000000000000000000000000081526004016127d19061452a565b60405180910390fd5b6127e860008383600161208b565b6127f18161204a565b15612831576040517f08c379a00000000000000000000000000000000000000000000000000000000081526004016128289061452a565b60405180910390fd5b6001600360008473ffffffffffffffffffffffffffffffffffffffff1673ffffffffffffffffffffffffffffffffffffffff16815260200190815260200160002060008282540192505081905550816002600083815260200190815260200160002060006101000a81548173ffffffffffffffffffffffffffffffffffffffff021916908373ffffffffffffffffffffffffffffffffffffffff160217905550808273ffffffffffffffffffffffffffffffffffffffff16600073ffffffffffffffffffffffffffffffffffffffff167fddf252ad1be2c89b69c2b068fc378daa952ba7f163c4a11628f55a4df523b3ef60405160405180910390a461293b6000838360016121b1565b5050565b6000808273ffffffffffffffffffffffffffffffffffffffff163b119050919050565b60606000600161297184612a3a565b01905060008167ffffffffffffffff8111156129905761298f6130a6565b5b6040519080825280601f01601f1916602001820160405280156129c25781602001600182028036833780820191505090505b509050600082602001820190505b600115612a2f578080600190039150507f3031323334353637383961626364656600000000000000000000000000000000600a86061a8153600a8581612a1957612a18613587565b5b0494506000851415612a2a57612a2f565b6129d0565b819350505050919050565b600080600090507a184f03e93ff9f4daa797ed6e38ed64bf6a1f0100000000000000008310612a98577a184f03e93ff9f4daa797ed6e38ed64bf6a1f0100000000000000008381612a8e57612a8d613587565b5b0492506040810190505b6d04ee2d6d415b85acef81000000008310612ad5576d04ee2d6d415b85acef81000000008381612acb57612aca613587565b5b0492506020810190505b662386f26fc100008310612b0457662386f26fc100008381612afa57612af9613587565b5b0492506010810190505b6305f5e1008310612b2d576305f5e1008381612b2357612b22613587565b5b0492506008810190505b6127108310612b52576127108381612b4857612b47613587565b5b0492506004810190505b60648310612b755760648381612b6b57612b6a613587565b5b0492506002810190505b600a8310612b84576001810190505b80915050919050565b828054612b99906132f7565b90600052602060002090601f016020900481019282612bbb5760008555612c02565b82601f10612bd457805160ff1916838001178555612c02565b82800160010185558215612c02579182015b82811115612c01578251825591602001919060010190612be6565b5b509050612c0f9190612c3a565b5090565b6040518060a001604052806005905b6060815260200190600190039081612c225790505090565b5b80821115612c53576000816000905550600101612c3b565b5090565b6000604051905090565b600080fd5b600080fd5b60007fffffffff0000000000000000000000000000000000000000000000000000000082169050919050565b612ca081612c6b565b8114612cab57600080fd5b50565b600081359050612cbd81612c97565b92915050565b600060208284031215612cd957612cd8612c61565b5b6000612ce784828501612cae565b91505092915050565b60008115159050919050565b612d0581612cf0565b82525050565b6000602082019050612d206000830184612cfc565b92915050565b600081519050919050565b600082825260208201905092915050565b60005b83811015612d60578082015181840152602081019050612d45565b83811115612d6f576000848401525b50505050565b6000601f19601f8301169050919050565b6000612d9182612d26565b612d9b8185612d31565b9350612dab818560208601612d42565b612db481612d75565b840191505092915050565b60006020820190508181036000830152612dd98184612d86565b905092915050565b6000819050919050565b612df481612de1565b8114612dff57600080fd5b50565b600081359050612e1181612deb565b92915050565b600060208284031215612e2d57612e2c612c61565b5b6000612e3b84828501612e02565b91505092915050565b600073ffffffffffffffffffffffffffffffffffffffff82169050919050565b6000612e6f82612e44565b9050919050565b612e7f81612e64565b82525050565b6000602082019050612e9a6000830184612e76565b92915050565b612ea981612e64565b8114612eb457600080fd5b50565b600081359050612ec681612ea0565b92915050565b60008060408385031215612ee357612ee2612c61565b5b6000612ef185828601612eb7565b9250506020612f0285828601612e02565b9150509250929050565b600080600060608486031215612f2557612f24612c61565b5b6000612f3386828701612eb7565b9350506020612f4486828701612eb7565b9250506040612f5586828701612e02565b9150509250925092565b6000819050919050565b6000612f84612f7f612f7a84612e44565b612f5f565b612e44565b9050919050565b6000612f9682612f69565b9050919050565b6000612fa882612f8b565b9050919050565b612fb881612f9d565b82525050565b6000602082019050612fd36000830184612faf565b92915050565b600060208284031215612fef57612fee612c61565b5b6000612ffd84828501612eb7565b91505092915050565b61300f81612de1565b82525050565b600060208201905061302a6000830184613006565b92915050565b61303981612cf0565b811461304457600080fd5b50565b60008135905061305681613030565b92915050565b6000806040838503121561307357613072612c61565b5b600061308185828601612eb7565b925050602061309285828601613047565b9150509250929050565b600080fd5b600080fd5b7f4e487b7100000000000000000000000000000000000000000000000000000000600052604160045260246000fd5b6130de82612d75565b810181811067ffffffffffffffff821117156130fd576130fc6130a6565b5b80604052505050565b6000613110612c57565b905061311c82826130d5565b919050565b600067ffffffffffffffff82111561313c5761313b6130a6565b5b61314582612d75565b9050602081019050919050565b82818337600083830152505050565b600061317461316f84613121565b613106565b9050828152602081018484840111156131905761318f6130a1565b5b61319b848285613152565b509392505050565b600082601f8301126131b8576131b761309c565b5b81356131c8848260208601613161565b91505092915050565b600080600080608085870312156131eb576131ea612c61565b5b60006131f987828801612eb7565b945050602061320a87828801612eb7565b935050604061321b87828801612e02565b925050606085013567ffffffffffffffff81111561323c5761323b612c66565b5b613248878288016131a3565b91505092959194509250565b6000819050919050565b61326781613254565b82525050565b6000602082019050613282600083018461325e565b92915050565b6000806040838503121561329f5761329e612c61565b5b60006132ad85828601612eb7565b92505060206132be85828601612eb7565b9150509250929050565b7f4e487b7100000000000000000000000000000000000000000000000000000000600052602260045260246000fd5b6000600282049050600182168061330f57607f821691505b60208210811415613323576133226132c8565b5b50919050565b7f4552433732313a20617070726f76616c20746f2063757272656e74206f776e6560008201527f7200000000000000000000000000000000000000000000000000000000000000602082015250565b6000613385602183612d31565b915061339082613329565b604082019050919050565b600060208201905081810360008301526133b481613378565b9050919050565b7f4552433732313a20617070726f76652063616c6c6572206973206e6f7420746f60008201527f6b656e206f776e6572206f7220617070726f76656420666f7220616c6c000000602082015250565b6000613417603d83612d31565b9150613422826133bb565b604082019050919050565b600060208201905081810360008301526134468161340a565b9050919050565b7f4552433732313a2063616c6c6572206973206e6f7420746f6b656e206f776e6560008201527f72206f7220617070726f76656400000000000000000000000000000000000000602082015250565b60006134a9602d83612d31565b91506134b48261344d565b604082019050919050565b600060208201905081810360008301526134d88161349c565b9050919050565b7f4552433732313a20696e76616c696420746f6b656e2049440000000000000000600082015250565b6000613515601883612d31565b9150613520826134df565b602082019050919050565b6000602082019050818103600083015261354481613508565b9050919050565b6000819050919050565b61356661356182612de1565b61354b565b82525050565b60006135788284613555565b60208201915081905092915050565b7f4e487b7100000000000000000000000000000000000000000000000000000000600052601260045260246000fd5b60006135c182612de1565b91506135cc83612de1565b9250826135dc576135db613587565b5b828206905092915050565b7f4552433732313a2061646472657373207a65726f206973206e6f74206120766160008201527f6c6964206f776e65720000000000000000000000000000000000000000000000602082015250565b6000613643602983612d31565b915061364e826135e7565b604082019050919050565b6000602082019050818103600083015261367281613636565b9050919050565b600081905092915050565b7f43454c4f55534400000000000000000000000000000000000000000000000000600082015250565b60006136ba600783613679565b91506136c582613684565b600782019050919050565b60006136db826136ad565b9150819050919050565b60006136f082612d26565b6136fa8185613679565b935061370a818560208601612d42565b80840191505092915050565b600061372282846136e5565b915081905092915050565b7f4254435553440000000000000000000000000000000000000000000000000000600082015250565b6000613763600683613679565b915061376e8261372d565b600682019050919050565b600061378482613756565b9150819050919050565b7f43454c4f45555200000000000000000000000000000000000000000000000000600082015250565b60006137c4600783613679565b91506137cf8261378e565b600782019050919050565b60006137e5826137b7565b9150819050919050565b7f4554485553440000000000000000000000000000000000000000000000000000600082015250565b6000613825600683613679565b9150613830826137ef565b600682019050919050565b600061384682613818565b9150819050919050565b7f4e435443454c4f00000000000000000000000000000000000000000000000000600082015250565b6000613886600783613679565b915061389182613850565b600782019050919050565b60006138a782613879565b9150819050919050565b7f4e43545553440000000000000000000000000000000000000000000000000000600082015250565b60006138e7600683613679565b91506138f2826138b1565b600682019050919050565b6000613908826138da565b9150819050919050565b7f4f776e61626c653a206e6577206f776e657220697320746865207a65726f206160008201527f6464726573730000000000000000000000000000000000000000000000000000602082015250565b600061396e602683612d31565b915061397982613912565b604082019050919050565b6000602082019050818103600083015261399d81613961565b9050919050565b7f4552433732313a207472616e736665722066726f6d20696e636f72726563742060008201527f6f776e6572000000000000000000000000000000000000000000000000000000602082015250565b6000613a00602583612d31565b9150613a0b826139a4565b604082019050919050565b60006020820190508181036000830152613a2f816139f3565b9050919050565b7f4552433732313a207472616e7366657220746f20746865207a65726f2061646460008201527f7265737300000000000000000000000000000000000000000000000000000000602082015250565b6000613a92602483612d31565b9150613a9d82613a36565b604082019050919050565b60006020820190508181036000830152613ac181613a85565b9050919050565b7f45524337323155524953746f726167653a2055524920736574206f66206e6f6e60008201527f6578697374656e7420746f6b656e000000000000000000000000000000000000602082015250565b6000613b24602e83612d31565b9150613b2f82613ac8565b604082019050919050565b60006020820190508181036000830152613b5381613b17565b9050919050565b7f4f776e61626c653a2063616c6c6572206973206e6f7420746865206f776e6572600082015250565b6000613b90602083612d31565b9150613b9b82613b5a565b602082019050919050565b60006020820190508181036000830152613bbf81613b83565b9050919050565b7f4552433732313a20617070726f766520746f2063616c6c657200000000000000600082015250565b6000613bfc601983612d31565b9150613c0782613bc6565b602082019050919050565b60006020820190508181036000830152613c2b81613bef565b9050919050565b7f4552433732313a207472616e7366657220746f206e6f6e20455243373231526560008201527f63656976657220696d706c656d656e7465720000000000000000000000000000602082015250565b6000613c8e603283612d31565b9150613c9982613c32565b604082019050919050565b60006020820190508181036000830152613cbd81613c81565b9050919050565b6000613cd082856136e5565b9150613cdc82846136e5565b91508190509392505050565b7f4e487b7100000000000000000000000000000000000000000000000000000000600052601160045260246000fd5b6000613d2282613254565b9150613d2d83613254565b9250827f7fffffffffffffffffffffffffffffffffffffffffffffffffffffffffffffff0482116000841360008413161615613d6c57613d6b613ce8565b5b817f80000000000000000000000000000000000000000000000000000000000000000583126000841260008413161615613da957613da8613ce8565b5b827f80000000000000000000000000000000000000000000000000000000000000000582126000841360008412161615613de657613de5613ce8565b5b827f7fffffffffffffffffffffffffffffffffffffffffffffffffffffffffffffff0582126000841260008412161615613e2357613e22613ce8565b5b828202905092915050565b7f4e487b7100000000000000000000000000000000000000000000000000000000600052603260045260246000fd5b6000613e6982886136e5565b9150613e7582876136e5565b9150613e8182866136e5565b9150613e8d82856136e5565b9150613e9982846136e5565b91508190509695505050505050565b7f7b226e616d65223a202200000000000000000000000000000000000000000000600082015250565b6000613ede600a83613679565b9150613ee982613ea8565b600a82019050919050565b7f2023000000000000000000000000000000000000000000000000000000000000600082015250565b6000613f2a600283613679565b9150613f3582613ef4565b600282019050919050565b7f222c20226465736372697074696f6e223a20224d4d4f5250472069732072616e60008201527f646f6d697a656420616476656e7475726572204e46542077686963682069732060208201527f73746f726564206f6e20636861696e2e2053746174732c20696d61676573204660408201527f65656c206672656520746f20757365204d4d4f52504720696e20616e7920776160608201527f7920796f752077616e742e222c2022696d616765223a2022646174613a696d6160808201527f67652f7376672b786d6c3b6261736536342c000000000000000000000000000060a082015250565b600061403460b283613679565b915061403f82613f40565b60b282019050919050565b7f227d000000000000000000000000000000000000000000000000000000000000600082015250565b6000614080600283613679565b915061408b8261404a565b600282019050919050565b60006140a182613ed1565b91506140ad82866136e5565b91506140b882613f1d565b91506140c482856136e5565b91506140cf82614027565b91506140db82846136e5565b91506140e682614073565b9150819050949350505050565b7f646174613a6170706c69636174696f6e2f6a736f6e3b6261736536342c000000600082015250565b6000614129601d83613679565b9150614134826140f3565b601d82019050919050565b600061414a8261411c565b915061415682846136e5565b915081905092915050565b600061416c82612c6b565b9050919050565b61417c81614161565b82525050565b60006020820190506141976000830184614173565b92915050565b6141a681613254565b81146141b157600080fd5b50565b6000815190506141c38161419d565b92915050565b6000815190506141d881612deb565b92915050565b6000806000606084860312156141f7576141f6612c61565b5b6000614205868287016141b4565b9350506020614216868287016141c9565b9250506040614227868287016141c9565b9150509250925092565b600061423c82612de1565b915061424783612de1565b92508282101561425a57614259613ce8565b5b828203905092915050565b600061427082612de1565b915061427b83612de1565b9250827fffffffffffffffffffffffffffffffffffffffffffffffffffffffffffffffff038211156142b0576142af613ce8565b5b828201905092915050565b600081519050919050565b600082825260208201905092915050565b60006142e2826142bb565b6142ec81856142c6565b93506142fc818560208601612d42565b61430581612d75565b840191505092915050565b60006080820190506143256000830187612e76565b6143326020830186612e76565b61433f6040830185613006565b818103606083015261435181846142d7565b905095945050505050565b60008151905061436b81612c97565b92915050565b60006020828403121561438757614386612c61565b5b60006143958482850161435c565b91505092915050565b60006143a982612de1565b91507fffffffffffffffffffffffffffffffffffffffffffffffffffffffffffffffff8214156143dc576143db613ce8565b5b600182019050919050565b60006143f282612de1565b91506143fd83612de1565b92508261440d5761440c613587565b5b828204905092915050565b600061442382612de1565b915061442e83612de1565b9250817fffffffffffffffffffffffffffffffffffffffffffffffffffffffffffffffff048311821515161561446757614466613ce8565b5b828202905092915050565b7f4552433732313a206d696e7420746f20746865207a65726f2061646472657373600082015250565b60006144a8602083612d31565b91506144b382614472565b602082019050919050565b600060208201905081810360008301526144d78161449b565b9050919050565b7f4552433732313a20746f6b656e20616c7265616479206d696e74656400000000600082015250565b6000614514601c83612d31565b915061451f826144de565b602082019050919050565b6000602082019050818103600083015261454381614507565b905091905056fe3c2f746578743e3c7465787420783d2231302220793d2236302220636c6173733d2262617365223e3c2f746578743e3c2f7376673e3c73766720786d6c6e733d22687474703a2f2f7777772e77332e6f72672f323030302f73766722207072657365727665417370656374526174696f3d22784d696e594d696e206d656574222076696577426f783d223020302033353020333530223e3c7374796c653e2e62617365207b2066696c6c3a2077686974653b20666f6e742d66616d696c793a2073657269663b20666f6e742d73697a653a20313470783b207d3c2f7374796c653e3c726563742077696474683d223130302522206865696768743d2231303025222066696c6c3d22626c61636b22202f3e3c7465787420783d2231302220793d2232302220636c6173733d2262617365223e4142434445464748494a4b4c4d4e4f505152535455565758595a6162636465666768696a6b6c6d6e6f707172737475767778797a303132333435363738392b2f3c2f746578743e3c7465787420783d2231302220793d2234302220636c6173733d2262617365223ea264697066735822122000f4742276065b39ee8c18edd28b312caa8aa8d62067669ed5a3fb729422dcb564736f6c63430008090033",
  "immutableReferences": {
    "2888": [
      {
        "length": 32,
        "start": 1790
      },
      {
        "length": 32,
        "start": 7142
      },
      {
        "length": 32,
        "start": 7330
      },
      {
        "length": 32,
        "start": 7518
      },
      {
        "length": 32,
        "start": 7706
      },
      {
        "length": 32,
        "start": 7894
      },
      {
        "length": 32,
        "start": 8082
      }
    ]
  },
  "source": "// SPDX-License-Identifier: MIT\r\npragma solidity ^0.8.9;\r\n\r\nimport \"witnet-solidity-bridge/contracts/interfaces/IWitnetPriceRouter.sol\";\r\nimport \"@openzeppelin/contracts/token/ERC721/ERC721.sol\";\r\nimport \"@openzeppelin/contracts/token/ERC721/extensions/ERC721URIStorage.sol\";\r\nimport \"@openzeppelin/contracts/access/Ownable.sol\";\r\nimport \"@openzeppelin/contracts/utils/Counters.sol\";\r\n\r\nenum Currency {\r\n    CELOUSD, BTCUSD ,CELOEUR, ETHUSD, NCTCELO, NCTUSD\r\n    }\r\n\r\ncontract NFT2 is ERC721, ERC721URIStorage, Ownable {\r\n    using Counters for Counters.Counter;\r\n\r\n    IWitnetPriceRouter public immutable witnetPriceRouter;\r\n    Counters.Counter private _tokenIdCounter;\r\n\r\n    \r\n    constructor() ERC721(\"DYNAMICNFT\", \"CELO\") {\r\n        witnetPriceRouter = IWitnetPriceRouter(0x6f8A7E2bBc1eDb8782145cD1089251f6e2C738AE);\r\n    }\r\n\r\n    function getCeloUsdPrice() internal view returns (int256 _lastPrice) {\r\n        (_lastPrice,,) = witnetPriceRouter.valueFor(bytes4(0x9ed884be));\r\n    }\r\n\r\n    function getBTCUsdPrice() internal view returns (int256 _lastPrice) {\r\n        (_lastPrice,,) = witnetPriceRouter.valueFor(bytes4(0x24beead4));\r\n    }\r\n    function getCELOEurPrice() internal view returns (int256 _lastPrice) {\r\n        (_lastPrice,,) = witnetPriceRouter.valueFor(bytes4(0x21a79821));\r\n    }\r\n    function getETHUsdPrice() internal view returns (int256 _lastPrice) {\r\n        (_lastPrice,,) = witnetPriceRouter.valueFor(bytes4(0x3d15f701));\r\n    }\r\n    function getNCTCeloPrice() internal view returns (int256 _lastPrice) {\r\n        (_lastPrice,,) = witnetPriceRouter.valueFor(bytes4(0x4d50c3a6));\r\n    }\r\n    function getNCTUsdPrice() internal view returns (int256 _lastPrice) {\r\n        (_lastPrice,,) = witnetPriceRouter.valueFor(bytes4(0x31077f15));\r\n    }\r\n\r\n    function safeMint() public {\r\n        uint256 tokenId = _tokenIdCounter.current();\r\n           uint8 selectedCurrency = uint8(uint256(keccak256(abi.encodePacked(block.timestamp))) % 6);\r\n        string memory selectedCurrencyString;\r\n\r\n\r\n        // Convert selected currency to string\r\n        if (selectedCurrency == 0) {\r\n            selectedCurrencyString = \"CELOUSD\";\r\n        } else if (selectedCurrency == 1) {\r\n            selectedCurrencyString = \"BTCUSD\";\r\n        } else if (selectedCurrency == 2) {\r\n            selectedCurrencyString = \"CELOEUR\";\r\n        } else if (selectedCurrency == 3) {\r\n            selectedCurrencyString = \"ETHUSD\";\r\n        } else if (selectedCurrency == 4) {\r\n            selectedCurrencyString = \"NCTCELO\";\r\n        } else if (selectedCurrency == 5) {\r\n            selectedCurrencyString = \"NCTUSD\";\r\n        } else {\r\n            selectedCurrencyString = \"CELOUSD\";\r\n        }\r\n        _tokenIdCounter.increment();\r\n        _safeMint(msg.sender, tokenId);\r\n        _setTokenURI(tokenId, selectedCurrencyString);\r\n    }\r\n\r\n    // The following functions are overrides required by Solidity.\r\n\r\n    function _burn(uint256 tokenId) internal override(ERC721, ERC721URIStorage) {\r\n        super._burn(tokenId);\r\n    }\r\n    function getPrice(uint256 _tokenId) public view returns (int256 _lastPrice) {\r\n        // Retrieve the selected currency from the token URI\r\n        string memory selectedCurrency = super.tokenURI(_tokenId);\r\n        // Use a switch statement to return data based on the selected currency\r\n        if (keccak256(abi.encodePacked(selectedCurrency)) == keccak256(abi.encodePacked(\"CELOUSD\"))) {\r\n        return getCeloUsdPrice();\r\n        } else if (keccak256(abi.encodePacked(selectedCurrency)) == keccak256(abi.encodePacked(\"BTCUSD\"))) {\r\n        return getBTCUsdPrice();\r\n        } else if (keccak256(abi.encodePacked(selectedCurrency)) == keccak256(abi.encodePacked(\"CELOEUR\"))) {\r\n        return getCELOEurPrice();\r\n        } else if (keccak256(abi.encodePacked(selectedCurrency)) == keccak256(abi.encodePacked(\"ETHUSD\"))) {\r\n        return getETHUsdPrice();\r\n        } else if (keccak256(abi.encodePacked(selectedCurrency)) == keccak256(abi.encodePacked(\"NCTCELO\"))) {\r\n        return getNCTCeloPrice();\r\n        } else if (keccak256(abi.encodePacked(selectedCurrency)) == keccak256(abi.encodePacked(\"NCTUSD\"))) {\r\n        return getNCTUsdPrice();\r\n        }\r\n    }\r\n    function tokenURI(uint256 tokenId)\r\n        public\r\n        view\r\n        override(ERC721, ERC721URIStorage)\r\n        returns (string memory)\r\n    {\r\n        (int256 lastPrice) = getPrice(tokenId);\r\n        int256 storedLastPrice = lastPrice;\r\n        string memory selectedCurrency = super.tokenURI(tokenId);\r\n\r\n        return NFTgenerate(tokenId,selectedCurrency,storedLastPrice);\r\n    }\r\n    function NFTgenerate(uint256 tokenId,string memory selectedCurrency,int256 storedLastPrice) internal view returns (string memory) {\r\n        uint256 _temp;\r\n         _temp = uint256(storedLastPrice*1000000);\r\n        \r\n        string[5] memory parts;\r\n               parts[0] = '<svg xmlns=\"http://www.w3.org/2000/svg\" preserveAspectRatio=\"xMinYMin meet\" viewBox=\"0 0 350 350\"><style>.base { fill: white; font-family: serif; font-size: 14px; }</style><rect width=\"100%\" height=\"100%\" fill=\"black\" /><text x=\"10\" y=\"20\" class=\"base\">';\r\n\r\n        parts[1] = selectedCurrency;\r\n\r\n        parts[2] = '</text><text x=\"10\" y=\"40\" class=\"base\">';\r\n\r\n        parts[3] = toString(_temp);\r\n\r\n        parts[4] = '</text><text x=\"10\" y=\"60\" class=\"base\"></text></svg>';\r\n        \r\n\r\n        string memory output = string(abi.encodePacked(parts[0], parts[1], parts[2], parts[3], parts[4]));\r\n        string memory json = Base64.encode(bytes(string(abi.encodePacked('{\"name\": \"', selectedCurrency, ' #', toString(tokenId), '\", \"description\": \"MMORPG is randomized adventurer NFT which is stored on chain. Stats, images Feel free to use MMORPG in any way you want.\", \"image\": \"data:image/svg+xml;base64,', Base64.encode(bytes(output)), '\"}'))));\r\n\r\n\r\n        output = string(abi.encodePacked('data:application/json;base64,', json));\r\n\r\n        return output;\r\n    }\r\n    function toString(uint256 value) internal pure returns (string memory) {\r\n    // Inspired by OraclizeAPI's implementation - MIT license\r\n    // https://github.com/oraclize/ethereum-api/blob/b42146b063c7d6ee1358846c198246239e9360e8/oraclizeAPI_0.4.25.sol\r\n\r\n        if (value == 0) {\r\n            return \"0\";\r\n        }\r\n        uint256 temp = value;\r\n        uint256 digits;\r\n        while (temp != 0) {\r\n            digits++;\r\n            temp /= 10;\r\n        }\r\n        bytes memory buffer = new bytes(digits);\r\n        while (value != 0) {\r\n            digits -= 1;\r\n            buffer[digits] = bytes1(uint8(48 + uint256(value % 10)));\r\n            value /= 10;\r\n        }\r\n        return string(buffer);\r\n    }\r\n\r\n}\r\n/// [MIT License]\r\n/// @title Base64\r\n/// @notice Provides a function for encoding some bytes in base64\r\n/// @author Brecht Devos <brecht@loopring.org>\r\n    library Base64 {\r\n    bytes internal constant TABLE = \"ABCDEFGHIJKLMNOPQRSTUVWXYZabcdefghijklmnopqrstuvwxyz0123456789+/\";\r\n\r\n    /// @notice Encodes some bytes to the base64 representation\r\n    function encode(bytes memory data) internal pure returns (string memory) {\r\n        uint256 len = data.length;\r\n        if (len == 0) return \"\";\r\n\r\n        // multiply by 4/3 rounded up\r\n        uint256 encodedLen = 4 * ((len + 2) / 3);\r\n\r\n        // Add some extra buffer at the end\r\n        bytes memory result = new bytes(encodedLen + 32);\r\n\r\n        bytes memory table = TABLE;\r\n\r\n        assembly {\r\n            let tablePtr := add(table, 1)\r\n            let resultPtr := add(result, 32)\r\n\r\n            for {\r\n                let i := 0\r\n            } lt(i, len) {\r\n\r\n            } {\r\n                i := add(i, 3)\r\n                let input := and(mload(add(data, i)), 0xffffff)\r\n\r\n                let out := mload(add(tablePtr, and(shr(18, input), 0x3F)))\r\n                out := shl(8, out)\r\n                out := add(out, and(mload(add(tablePtr, and(shr(12, input), 0x3F))), 0xFF))\r\n                out := shl(8, out)\r\n                out := add(out, and(mload(add(tablePtr, and(shr(6, input), 0x3F))), 0xFF))\r\n                out := shl(8, out)\r\n                out := add(out, and(mload(add(tablePtr, and(input, 0x3F))), 0xFF))\r\n                out := shl(224, out)\r\n\r\n                mstore(resultPtr, out)\r\n\r\n                resultPtr := add(resultPtr, 4)\r\n            }\r\n\r\n            switch mod(len, 3)\r\n            case 1 {\r\n                mstore(sub(resultPtr, 2), shl(240, 0x3d3d))\r\n            }\r\n            case 2 {\r\n                mstore(sub(resultPtr, 1), shl(248, 0x3d))\r\n            }\r\n\r\n            mstore(result, encodedLen)\r\n        }\r\n\r\n        return string(result);\r\n    }\r\n    }",
  "sourcePath": "/home/kunaldawar/NFTsmartcontract/contracts/NFT2.sol",
  "compiler": {
    "name": "solc",
    "version": "0.8.9+commit.e5eed63a.Emscripten.clang"
  },
  "schemaVersion": "3.4.10",
  "updatedAt": "2023-01-28T10:04:00.007Z",
  "networkType": "ethereum",
  "devdoc": {
    "kind": "dev",
    "methods": {
      "approve(address,uint256)": {
        "details": "See {IERC721-approve}."
      },
      "balanceOf(address)": {
        "details": "See {IERC721-balanceOf}."
      },
      "getApproved(uint256)": {
        "details": "See {IERC721-getApproved}."
      },
      "isApprovedForAll(address,address)": {
        "details": "See {IERC721-isApprovedForAll}."
      },
      "name()": {
        "details": "See {IERC721Metadata-name}."
      },
      "owner()": {
        "details": "Returns the address of the current owner."
      },
      "ownerOf(uint256)": {
        "details": "See {IERC721-ownerOf}."
      },
      "renounceOwnership()": {
        "details": "Leaves the contract without owner. It will not be possible to call `onlyOwner` functions anymore. Can only be called by the current owner. NOTE: Renouncing ownership will leave the contract without an owner, thereby removing any functionality that is only available to the owner."
      },
      "safeTransferFrom(address,address,uint256)": {
        "details": "See {IERC721-safeTransferFrom}."
      },
      "safeTransferFrom(address,address,uint256,bytes)": {
        "details": "See {IERC721-safeTransferFrom}."
      },
      "setApprovalForAll(address,bool)": {
        "details": "See {IERC721-setApprovalForAll}."
      },
      "supportsInterface(bytes4)": {
        "details": "See {IERC165-supportsInterface}."
      },
      "symbol()": {
        "details": "See {IERC721Metadata-symbol}."
      },
      "transferFrom(address,address,uint256)": {
        "details": "See {IERC721-transferFrom}."
      },
      "transferOwnership(address)": {
        "details": "Transfers ownership of the contract to a new account (`newOwner`). Can only be called by the current owner."
      }
    },
    "version": 1
  },
  "userdoc": {
    "kind": "user",
    "methods": {},
    "version": 1
  }
}